:020000040800F2
:1000000000500020D5060008790600087F06000889
:10001000850600088B060008910600080000000015
:10002000000000000000000000000000970600082B
:10003000A306000800000000AF060008BB06000889
:100040001D0700081D0700081D0700081D07000800
:100050001D0700081D0700081D0700081D070008F0
:100060001D0700081D0700081D0700081D070008E0
:100070001D0700081D0700081D0700081D070008D0
:100080001D0700081D0700081D0700081D070008C0
:100090001D0700081D0700081D0700081D070008B0
:1000A0001D0700081D0700081D0700081D070008A0
:1000B0001D0700081D0700081D0700081D07000890
:1000C0001D0700081D0700081D0700081D07000880
:1000D0001D0700081D0700081D0700081D07000870
:1000E0001D0700081D0700081D070008000000008C
:1000F0000000000000000000000000000000000000
:0C01000000000000000000005FF808F1A3
:10010C0010B5054C237833B9044B13B10448AFF345
:10011C0000800123237010BD0C00002000000000A3
:10012C005C1A000808B5034B1BB103490348AFF335
:10013C00008008BD00000000100000205C1A0008C0
:10014C0080B500AF002201210E4800F0E8FD14201C
:10015C0000F0FEF8012201210A4800F0E0FD0A201F
:10016C0000F0DAF80121074800F092F800BF0121F5
:10017C00044800F0BDFD0346002BF8D100BF00BFC2
:10018C0080BD00BF0008014080B582B000AF0023E5
:10019C00FB71282000F0C0F80121114800F0A8FDE7
:1001AC000346002B0ED1502000F0B6F801210C486C
:1001BC0000F09EFD0346012B02D10123FB7101E0EF
:1001CC00FF23FB7100BF0121054800F091FD0346A0
:1001DC00002BF8D1FB7918460837BD4680BD00BF0F
:1001EC000008014080B582B000AF0023FB71124BB8
:1001FC001B68114A43F0010313600F4B00225A6233
:10020C0000BF01210D4800F073FD0346002BF8D10F
:10021C00094B5B6AFB71084B1B68074A23F001030F
:10022C001360FB79322B01D9012300E0002318461F
:10023C000837BD4680BD00BF0004004000080140E7
:10024C0080B582B000AF00237B6000233B6014E0DC
:10025C007B685B007B60FFF7C5FF03461A467B6833
:10026C0013437B6000BF0121084800F041FD0346A9
:10027C00002BF8D03B6801333B603B68072BE7DD74
:10028C007B6818460837BD4680BD00BF000801409A
:10029C0080B586B000AF78600B467B8007F1080311
:1002AC0000221A605A609A60DA607B88BB60002377
:1002BC00FB6000233B6103237B6107F108031946B4
:1002CC00034800F091FB00BF1837BD4680BD00BF4E
:1002DC000008014080B586B000AF78600B467B808B
:1002EC0007F1080300221A605A609A60DA607B8872
:1002FC00BB601123FB6000233B6103237B6107F18F
:10030C0008031946034800F06FFB00BF1837BD46C1
:10031C0080BD00BF0008014080B483B000AF78609E
:10032C000A4B1B68094A43F001031360074B002278
:10033C005A6200BF054B5B6A7A689A42FAD800BFD2
:10034C0000BF0C37BD4680BC704700BF00040040A6
:10035C0080B483B000AF78600C4B1B680B4A43F041
:10036C0001031360094B00225A6200BF074B5A6A03
:10037C007B684FF47A7101FB03F39A42F6D300BF0A
:10038C0000BF0C37BD4680BC704700BF0004004066
:10039C0080B500AF00F0BEF900F040F800F0D2F8E4
:1003AC0000F082F8FFF7CCFEFFF7EEFE03461A468C
:1003BC00134B1A70124B1B78002B18D0FFF740FF11
:1003CC000346104A1360FFF73BFF03460E4A1360C7
:1003DC00FFF736FF03460D4A1360FFF731FF034664
:1003EC000B4A1360FFF72CFF03460A4A13600121E6
:1003FC000948FFF76FFF4FF47A7000F0EDF9D1E781
:10040C0030000020840000207C0000202800002008
:10041C002C000020800000200008014080B590B026
:10042C0000AF07F1180328220021184601F008FB41
:10043C003B1D00221A605A609A60DA601A6101232F
:10044C00BB614FF48033FB6100233B620123BB6231
:10045C0002237B634FF48033BB634FF4E013FB63E5
:10046C0007F11803184600F073FC0346002B01D06B
:10047C0000F0A6F80F237B600223BB600023FB6017
:10048C004FF480633B6100237B613B1D02211846C6
:10049C0000F0DEFE0346002B01D000F091F800BF07
:1004AC004037BD4680BD000080B586B000AF07F177
:1004BC00080300221A605A609A60DA603B460022F8
:1004CC001A605A601D4B1E4A1A601C4B47225A6018
:1004DC001A4B00229A60194B4FF6FF72DA60174BD9
:1004EC0000221A61154B00229A61144801F00CF895
:1004FC000346002B01D000F063F84FF48053BB602F
:10050C0007F1080319460D4801F04DF80346002B7E
:10051C0001D000F055F800233B6000237B603B4684
:10052C001946064801F00AFA0346002B01D000F0E8
:10053C0047F800BF1837BD4680BD00BF340000200F
:10054C000004004080B586B000AF07F1080300221C
:10055C001A605A609A60DA60174B9B69164A43F02E
:10056C0020039361144B9B6903F020037B607B6831
:10057C00114B9B69104A43F0040393610E4B9B692A
:10058C0003F004033B603B68012201210B4800F09F
:10059C00C6FB0123BB601123FB6000233B610323DB
:1005AC007B6107F108031946044800F01DFA00BFEF
:1005BC001837BD4680BD00BF001002400008014046
:1005CC0080B400AF72B600BFFEE7000080B485B007
:1005DC0000AF154B9B69144A43F001039361124B16
:1005EC009B6903F00103BB60BB680F4BDB690E4AD0
:1005FC0043F08053D3610C4BDB6903F080537B6079
:10060C007B680A4B5B68FB60FB6823F0E063FB6074
:10061C00FB6843F00073FB60044AFB68536000BF47
:10062C001437BD4680BC70470010024000000140EA
:10063C0080B485B000AF78607B681B68094A934230
:10064C000BD1094BDB69084A43F00203D361064B1B
:10065C00DB6903F00203FB60FB6800BF1437BD4687
:10066C0080BC7047000400400010024080B400AF12
:10067C00FEE780B400AFFEE780B400AFFEE780B4C5
:10068C0000AFFEE780B400AFFEE780B400AF00BF60
:10069C00BD4680BC704780B400AF00BFBD4680BC77
:1006AC00704780B400AF00BFBD4680BC704780B5BA
:1006BC0000AF00F075F800BF80BD80B400AF00BF84
:1006CC00BD4680BC70470000FFF7F7FF0B480C4994
:1006DC000C4A002302E0D458C4500433C4188C4292
:1006EC00F9D3094A094C002301E013600432A242F9
:1006FC00FBD301F081F9FFF74BFE7047000000209F
:10070C000C000020A01A00080C0000208C00002017
:10071C00FEE7000080B500AF084B1B68074A43F0AA
:10072C0010031360032000F02BF90F2000F008F8E1
:10073C00FFF74CFF0023184680BD00BF002002408D
:10074C0080B582B000AF7860124B1A68124B1B78E0
:10075C0019464FF47A73B3FBF1F3B2FBF3F318467B
:10076C0000F035F90346002B01D001230EE07B6825
:10077C000F2B0AD8002279684FF0FF3000F00BF9EC
:10078C00064A7B681360002300E0012318460837F3
:10079C00BD4680BD000000200800002004000020A1
:1007AC0080B400AF054B1B781A46054B1B681344ED
:1007BC00034A136000BFBD4680BC70470800002090
:1007CC008800002080B400AF024B1B681846BD4661
:1007DC0080BC70478800002080B584B000AF786082
:1007EC00FFF7F0FFB8607B68FB60FB68B3F1FF3F7D
:1007FC0005D00A4B1B781A46FB681344FB6000BFFC
:10080C00FFF7E0FF0246BB68D31AFA689A42F7D8A2
:10081C0000BF00BF1037BD4680BD00BF08000020E0
:10082C0080B485B000AF78607B6803F00703FB6091
:10083C000C4BDB68BB60BA684FF6FF031340BB6020
:10084C00FB681A02BB68134343F0BF6343F40033E5
:10085C00BB60044ABB68D36000BF1437BD4680BC84
:10086C00704700BF00ED00E080B400AF044BDB68C4
:10087C001B0A03F007031846BD4680BC704700BF37
:10088C0000ED00E080B483B000AF03463960FB712B
:10089C0097F90730002B0ADB3B68DAB20C4997F961
:1008AC0007301201D2B20B4483F800230AE03B68F4
:1008BC00DAB20849FB7903F00F03043B1201D2B200
:1008CC000B441A7600BF0C37BD4680BC704700BF86
:1008DC0000E100E000ED00E080B489B000AFF8600A
:1008EC00B9607A60FB6803F00703FB61FB69C3F135
:1008FC000703042B28BF0423BB61FB690433062BBD
:10090C0002D9FB69033B00E000237B614FF0FF320F
:10091C00BB6902FA03F3DA43BB681A407B699A405D
:10092C004FF0FF317B6901FA03F3D9437B680B402D
:10093C00134318462437BD4680BC704780B582B03F
:10094C0000AF78607B68013BB3F1807F01D301235A
:10095C000FE00A4A7B68013B53600F214FF0FF30D8
:10096C00FFF790FF054B00229A60044B07221A6098
:10097C00002318460837BD4680BD00BF10E000E0DC
:10098C0080B582B000AF78607868FFF749FF00BF90
:10099C000837BD4680BD80B586B000AF0346B96050
:1009AC007A60FB7300237B61FFF75EFF78617A68E6
:1009BC00B9687869FFF790FF024697F90F30114636
:1009CC001846FFF75FFF00BF1837BD4680BD80B5E6
:1009DC0082B000AF78607868FFF7B0FF0346184626
:1009EC000837BD4680BD000080B48BB000AF786086
:1009FC00396000237B6200233B6269E101227B6A40
:100A0C0002FA03F3FB613B681B68FA691340BB6194
:100A1C00BA69FB699A4240F058813B685B689A4A14
:100A2C0093425ED0984A934275D8984A934258D0D4
:100A3C00964A93426FD8964A934252D0944A934224
:100A4C0069D8944A93424CD0924A934263D8924AC2
:100A5C00934246D0904A93425DD8122B2AD8122B3F
:100A6C0059D801A252F823F0EF0A0008C90A00086D
:100A7C00DB0A00081D0B0008230B0008230B0008E1
:100A8C00230B0008230B0008230B0008230B000882
:100A9C00230B0008230B0008230B0008230B000872
:100AAC00230B0008230B0008230B0008D10A0008B5
:100ABC00E50A0008794A934213D02CE03B68DB68C6
:100ACC003B6229E03B68DB6804333B6224E03B6813
:100ADC00DB6808333B621FE03B68DB680C333B622E
:100AEC001AE03B689B68002B02D104233B6213E0A5
:100AFC003B689B68012B05D108233B627B68FA6934
:100B0C001A6109E008233B627B68FA695A6103E0C9
:100B1C0000233B6200E000BFBB69FF2B01D87B6860
:100B2C0001E07B6804337B61BB69FF2B02D87B6AD5
:100B3C009B0002E07B6A083B9B003B617B691A6867
:100B4C000F213B6901FA03F3DB431A40396A3B6915
:100B5C0001FA03F31A437B691A603B685B6803F084
:100B6C008053002B00F0B1804D4B9B694C4A43F0F5
:100B7C00010393614A4B9B6903F00103BB60BB68A3
:100B8C00484A7B6A9B08023352F82330FB607B6A2D
:100B9C0003F003039B000F2202FA03F3DB43FA6812
:100BAC001340FB607B68404A934213D07B683F4AFA
:100BBC0093420DD07B683E4A934207D07B683D4AF6
:100BCC00934201D1032306E0042304E0022302E054
:100BDC00012300E000237A6A02F0030292009340A2
:100BEC00FA681343FB602F497B6A9B080233FA684F
:100BFC0041F823203B685B6803F48013002B06D07C
:100C0C002D4B9A682C49BB6913438B6006E02A4B29
:100C1C009A68BB69DB43284913408B603B685B686F
:100C2C0003F40013002B06D0234BDA682249BB696E
:100C3C001343CB6006E0204BDA68BB69DB431E49EB
:100C4C001340CB603B685B6803F40033002B06D089
:100C5C00194B5A681849BB6913434B6006E0164B95
:100C6C005A68BB69DB43144913404B603B685B68B3
:100C7C0003F48033002B21D00F4B1A680E49BB694B
:100C8C0013430B6021E000BF000032100000311054
:100C9C0000002210000021100000121000001110A2
:100CAC00001002400000014000080140000C01400F
:100CBC000010014000140140000401400B4B1A6865
:100CCC00BB69DB43094913400B607B6A01337B62D0
:100CDC003B681A687B6A22FA03F3002B7FF48EAE12
:100CEC0000BF00BF2C37BD4680BC704700040140DC
:100CFC0080B485B000AF78600B467B807B689A68C7
:100D0C007B881340002B02D00123FB7301E00023EE
:100D1C00FB73FB7B18461437BD4680BC704780B410
:100D2C0083B000AF78600B467B8013467B707B787A
:100D3C00002B03D07A887B681A6103E07B881A0445
:100D4C007B681A6100BF0C37BD4680BC7047000041
:100D5C0080B586B000AF78607B68002B01D1012391
:100D6C006CE27B681B6803F00103002B00F08780AA
:100D7C00924B5B6803F00C03042B0CD08F4B5B681D
:100D8C0003F00C03082B12D18C4B5B6803F48033FB
:100D9C00B3F5803F0BD1894B1B6803F40033002B58
:100DAC006CD07B685B68002B68D1012346E27B68C2
:100DBC005B68B3F5803F06D1804B1B687F4A43F4D8
:100DCC00803313602EE07B685B68002B0CD17B4B6F
:100DDC001B687A4A23F480331360784B1B68774A7C
:100DEC0023F4802313601DE07B685B68B3F5A02FB0
:100DFC000CD1724B1B68714A43F4802313606F4B08
:100E0C001B686E4A43F4803313600BE06B4B1B681A
:100E1C006A4A23F480331360684B1B68674A23F4D7
:100E2C00802313607B685B68002B13D0FFF7CAFC30
:100E3C00386108E0FFF7C6FC02463B69D31A642B05
:100E4C0001D90323FAE15D4B1B6803F40033002B3B
:100E5C00F0D014E0FFF7B6FC386108E0FFF7B2FC05
:100E6C0002463B69D31A642B01D90323E6E1534BA9
:100E7C001B6803F40033002BF0D100E000BF7B684B
:100E8C001B6803F00203002B63D04C4B5B6803F030
:100E9C000C03002B0BD0494B5B6803F00C03082BA5
:100EAC001CD1464B5B6803F48033002B16D1434BAB
:100EBC001B6803F00203002B05D07B681B69012B18
:100ECC0001D00123BAE13D4B1B6823F0F8027B688B
:100EDC005B69DB00394913430B603AE07B681B69A3
:100EEC00002B20D0364B01221A60FFF76BFC3861C7
:100EFC0008E0FFF767FC02463B69D31A022B01D9C5
:100F0C0003239BE12D4B1B6803F00203002BF0D055
:100F1C002A4B1B6823F0F8027B685B69DB002749CE
:100F2C0013430B6015E0264B00221A60FFF74AFCB6
:100F3C00386108E0FFF746FC02463B69D31A022BE6
:100F4C0001D903237AE11D4B1B6803F00203002B2C
:100F5C00F0D17B681B6803F00803002B3AD07B6848
:100F6C009B69002B19D0174B01221A60FFF72AFC42
:100F7C00386108E0FFF726FC02463B69D31A022BC6
:100F8C0001D903235AE10D4B5B6A03F00203002BDA
:100F9C00F0D0012000F09AFA1CE00A4B00221A60F3
:100FAC00FFF710FC38610FE0FFF70CFC02463B69C1
:100FBC00D31A022B08D9032340E100BF00100240D2
:100FCC0000004242800442429E4B5B6A03F00203E3
:100FDC00002BE9D17B681B6803F00403002B00F0A5
:100FEC00A6800023FB75974BDB6903F08053002B25
:100FFC000DD1944BDB69934A43F08053D361914BF1
:10100C00DB6903F08053BB60BB680123FB758E4B1F
:10101C001B6803F48073002B18D18B4B1B688A4A16
:10102C0043F480731360FFF7CDFB386108E0FFF7E2
:10103C00C9FB02463B69D31A642B01D90323FDE09B
:10104C00814B1B6803F48073002BF0D07B68DB684A
:10105C00012B06D17B4B1B6A7A4A43F001031362C6
:10106C002DE07B68DB68002B0CD1764B1B6A754A34
:10107C0023F001031362734B1B6A724A23F00403BF
:10108C0013621CE07B68DB68052B0CD16D4B1B6A73
:10109C006C4A43F0040313626A4B1B6A694A43F0BF
:1010AC00010313620BE0674B1B6A664A23F00103D2
:1010BC001362644B1B6A634A23F0040313627B685C
:1010CC00DB68002B15D0FFF77DFB38610AE0FFF7DA
:1010DC0079FB02463B69D31A41F28832934201D91B
:1010EC000323ABE0574B1B6A03F00203002BEED03B
:1010FC0014E0FFF767FB38610AE0FFF763FB024679
:10110C003B69D31A41F28832934201D9032395E00B
:10111C004C4B1B6A03F00203002BEED1FB7D012B21
:10112C0005D1484BDB69474A23F08053D3617B6878
:10113C00DB69002B00F08180424B5B6803F00C03F1
:10114C00082B61D07B68DB69022B46D13F4B002218
:10115C001A60FFF737FB386108E0FFF733FB0246F4
:10116C003B69D31A022B01D9032367E0354B1B686B
:10117C0003F00073002BF0D17B681B6AB3F5803F42
:10118C0008D1304B5B6823F400327B689B682D4997
:10119C0013434B602B4B5B6823F474127B68196A06
:1011AC007B685B6A0B43274913434B60274B012237
:1011BC001A60FFF707FB386108E0FFF703FB0246F4
:1011CC003B69D31A022B01D9032337E01D4B1B6853
:1011DC0003F00073002BF0D02FE01C4B00221A60A0
:1011EC00FFF7F0FA386108E0FFF7ECFA02463B69CA
:1011FC00D31A022B01D9032320E0124B1B6803F0F6
:10120C000073002BF0D118E07B68DB69012B01D156
:10121C00012313E00B4B5B68FB60FB6803F480322B
:10122C007B681B6A9A4206D1FB6803F470127B68D8
:10123C005B6A9A4201D0012300E00023184618375C
:10124C00BD4680BD0010024000700040600042426C
:10125C0080B584B000AF786039607B68002B01D119
:10126C000123D0E06A4B1B6803F007033A689A42EB
:10127C0010D9674B1B6823F0070265493B68134381
:10128C000B60634B1B6803F007033A689A4201D06A
:10129C000123B8E07B681B6803F00203002B20D00D
:1012AC007B681B6803F00403002B05D0594B5B686B
:1012BC00584A43F4E06353607B681B6803F00803EF
:1012CC00002B05D0534B5B68524A43F46053536078
:1012DC00504B5B6823F0F0027B689B684D491343CD
:1012EC004B607B681B6803F00103002B40D07B68CC
:1012FC005B68012B07D1474B1B6803F40033002BB1
:10130C0015D101237FE07B685B68022B07D1414B31
:10131C001B6803F00073002B09D1012373E03D4BD4
:10132C001B6803F00203002B01D101236BE0394B46
:10133C005B6823F003027B685B68364913434B60A0
:10134C00FFF740FAF8600AE0FFF73CFA0246FB6848
:10135C00D31A41F28832934201D9032353E02D4B27
:10136C005B6803F00C027B685B689B009A42EBD1D4
:10137C00274B1B6803F007033A689A4210D2244BA0
:10138C001B6823F0070222493B6813430B60204B78
:10139C001B6803F007033A689A4201D0012332E03C
:1013AC007B681B6803F00403002B08D0194B5B68A7
:1013BC0023F4E0627B68DB68164913434B607B685F
:1013CC001B6803F00803002B09D0124B5B6823F455
:1013DC0060527B681B69DB000E4913434B6000F0C5
:1013EC0021F802460B4B5B681B0903F00F030A49FB
:1013FC00CB5C22FA03F3094A1360094B1B681846AD
:10140C00FFF79EF9002318461037BD4680BD00BF7C
:10141C000020024000100240741A00080000002056
:10142C000400002080B487B000AF0023FB600023D1
:10143C00BB6000237B6100237B6000233B611E4B60
:10144C005B68FB60FB6803F00C03042B02D0082BD9
:10145C0003D027E0194B3B6127E0FB689B0C03F0A2
:10146C000F03174AD35C7B60FB6803F48033002BBB
:10147C0010D0114B5B685B0C03F00103114AD35C79
:10148C00BB607B680D4A02FB03F2BB68B2FBF3F353
:10149C007B6104E07B680C4A02FB03F37B617B6994
:1014AC003B6102E0054B3B6100BF3B6918461C37B2
:1014BC00BD4680BC704700BF0010024000127A008D
:1014CC00841A0008941A000800093D0080B485B005
:1014DC0000AF78600A4B1B680A4AA2FB03235B0A25
:1014EC007A6802FB03F3FB6000BFFB685A1EFA60CC
:1014FC00002BF9D100BF00BF1437BD4680BC70472C
:10150C0000000020D34D621080B582B000AF78602F
:10151C007B68002B01D1012341E07B6893F83D30BF
:10152C00DBB2002B06D17B68002283F83C20786864
:10153C00FFF77EF87B68022283F83D207B681A68EF
:10154C007B6804331946104600F0F4F87B680122DE
:10155C0083F846207B68012283F83E207B680122B9
:10156C0083F83F207B68012283F840207B680122AE
:10157C0083F841207B68012283F842207B6801229A
:10158C0083F843207B68012283F844207B68012286
:10159C0083F845207B68012283F83D200023184600
:1015AC000837BD4680BD80B584B000AF7860396027
:1015BC000023FB737B6893F83C30012B01D1022391
:1015CC00B4E07B68012283F83C207B68022283F81C
:1015DC003D207B681B689B68BB60BB6823F077036E
:1015EC00BB60BB6823F47F43BB607B681B68BA6835
:1015FC009A603B681B68B3F5005F3ED0B3F5005FA3
:10160C0000F28780B3F5805F00F08680B3F5805FD1
:10161C007FD8702B1AD0702B7BD8602B50D0602BBE
:10162C0077D8502B3CD0502B73D8402B58D0402B14
:10163C006FD8302B64D0302B6BD8202B60D0202B64
:10164C0067D8002B5CD0102B5AD062E07B681868EE
:10165C003B6899683B685A683B68DB6800F04FF957
:10166C007B681B689B68BB60BB6843F07703BB60FF
:10167C007B681B68BA689A604FE07B6818683B68A7
:10168C0099683B685A683B68DB6800F038F97B68FE
:10169C001B689A687B681B6842F480429A603CE045
:1016AC007B6818683B6859683B68DB681A4600F031
:1016BC00AFF87B681B685021184600F006F92CE047
:1016CC007B6818683B6859683B68DB681A4600F011
:1016DC00CDF87B681B686021184600F0F6F81CE01A
:1016EC007B6818683B6859683B68DB681A4600F0F1
:1016FC008FF87B681B684021184600F0E6F80CE078
:10170C007B681A683B681B681946104600F0DDF8C8
:10171C0003E00123FB7300E000BF7B68012283F828
:10172C003D207B68002283F83C20FB7B1846103759
:10173C00BD4680BD80B485B000AF786039607B68F1
:10174C001B68FB607B682F4A93420BD07B68B3F11C
:10175C00804F07D07B682C4A934203D07B682B4A7E
:10176C00934208D1FB6823F07003FB603B685B6815
:10177C00FA681343FB607B68224A93420BD07B6868
:10178C00B3F1804F07D07B681F4A934203D07B682C
:10179C001E4A934208D1FB6823F44073FB603B68FC
:1017AC00DB68FA681343FB60FB6823F080023B683C
:1017BC005B691343FB607B68FA681A603B689A6844
:1017CC007B68DA623B681A687B689A627B680D4AB0
:1017DC00934203D13B681A697B681A637B680122C8
:1017EC005A617B681B6903F00103002B05D07B68F1
:1017FC001B6923F001027B681A6100BF1437BD46D8
:10180C0080BC7047002C01400004004000080040E0
:10181C0080B487B000AFF860B9607A60FB681B6A6F
:10182C007B61FB681B6A23F00102FB681A62FB6890
:10183C009B693B613B6923F0F0033B617B681B01B7
:10184C003A6913433B617B6923F00A037B617A6934
:10185C00BB6813437B61FB683A699A61FB687A69E0
:10186C001A6200BF1C37BD4680BC704780B487B07D
:10187C0000AFF860B9607A60FB681B6A7B61FB683B
:10188C001B6A23F01002FB681A62FB689B693B61C0
:10189C003B6923F470433B617B681B033A69134338
:1018AC003B617B6923F0A0037B61BB681B017A69F8
:1018BC0013437B61FB683A699A61FB687A691A6227
:1018CC0000BF1C37BD4680BC704780B485B000AFEC
:1018DC00786039607B689B68FB60FB6823F0700361
:1018EC00FB603A68FB68134343F00703FB607B68BB
:1018FC00FA689A6000BF1437BD4680BC704780B44C
:10190C0087B000AFF860B9607A603B60FB689B6899
:10191C007B617B6923F47F437B613B681A027B68A4
:10192C001A43BB6813437A6913437B61FB687A697A
:10193C009A6000BF1C37BD4680BC704780B485B030
:10194C0000AF786039607B6893F83C30012B01D193
:10195C00022346E07B68012283F83C207B6802224C
:10196C0083F83D207B681B685B68FB607B681B68A9
:10197C009B68BB60FB6823F07003FB603B681B68D3
:10198C00FA681343FB607B681B68FA685A607B68D3
:10199C001B68164A93420ED07B681B68B3F1804FCC
:1019AC0009D07B681B68124A934204D07B681B6881
:1019BC00104A93420CD1BB6823F08003BB603B6898
:1019CC005B68BA681343BB607B681B68BA689A6033
:1019DC007B68012283F83D207B68002283F83C2041
:1019EC00002318461437BD4680BC7047002C0140BC
:1019FC00000400400008004070B500260C4D0D4C52
:101A0C00641BA410A64209D100F022F800260A4D4E
:101A1C000A4C641BA410A64205D170BD55F8043BBA
:101A2C0098470136EEE755F8043B98470136F2E744
:101A3C00981A0008981A0008981A00089C1A0008AE
:101A4C0003460244934200D1704703F8011BF9E7A7
:101A5C00F8B500BFF8BC08BC9E467047F8B500BF8F
:081A6C00F8BC08BC9E4670475F
:101A7400000000000000000001020304060708093A
:101A840002030405060708090A0B0C0D0E0F1010BB
:041A9400010200004B
:041A98003101000810
:041A9C000D01000830
:0C1AA00000127A0010000000010000009D
:04000005080006D514
:00000001FF
